:020000040000FA
:0200000058287E
:08000800A000030EA100210E6F
:100010008300A00E200E09007F3983169B001C145C
:100020001A08831208007F3983169B0023089A0060
:100030001C158B1355309D00AA309D009C149C18F4
:100040001F288B17831208000430A700A40CA31FDD
:100050002A282C28A4112D28A415A30DA70B262887
:100060000430A700A50CA31F36283828A51139286D
:10007000A515A30DA70B322824162516080081000C
:100080000B110B1D41280800221C47284928051286
:100090004A28051605140510A20CA60B44280514C1
:1000A00005100514051005140510851685120800A5
:1000B00083160430850014309F0005308100003025
:1000C0008B0083120730990009309F0006303F20D3
:1000D0000C30A2000530A6004420B0303F200C3088
:1000E000A2000530A6004420FE303F200C30A200C4
:1000F0000530A6004420FE303F200430A200053029
:10010000A6004420FE303F200430A2000530A600A7
:100110004420FE303F200330A2000530A6004420DA
:10012000FE303F200030A2000530A6004420FE3003
:100130003F200330A2000530A6004420FE303F20BF
:100140000030A2000530A6004420FE303F200830D9
:10015000A2000530A6004420FE303F200030A2005F
:100160000530A6004420FE303F200430A2000530B8
:10017000A6004420C8303F202030A6003030840044
:100180009F140C1FC1281E088000840A0C13A60BA4
:10019000C028AC01AD012030A6003030840000083A
:1001A000AC07031CD428AD0A840AA60BCF2805305F
:1001B000A600AD0CAC0CA60BD9286430A600AD018E
:1001C0002C08AE002E08AC07031CE728AD0AA60BCE
:1001D000E2280030A9002D08AC000A30AD02031C53
:1001E000F328A90AEB28FE303F200030A20005309A
:1001F000A6004420FE303F200830A2000530A600B3
:100200004420FE303F200030A2000530A6004420EC
:10021000FE303F200430A2000530A6004420C83044
:100220003F200A302902031D43293130A300242036
:100230002408A2000530A6004420FE303F202508F7
:10024000A2000530A60044203030A300242024085A
:10025000A2000530A6004420FE303F202508A20061
:100260000530A60044203030A30024202408A2003A
:100270000530A6004420FE303F202508A2000530AE
:10028000A600442065293030A9072908A3002420AE
:100290002408A2000530A6004420FE303F20250897
:1002A000A2000530A60044203030AD072D08A30081
:1002B00024202408A2000530A6004420FE303F2060
:1002C0002508A2000530A60044202530A3002420E4
:1002D0002408A2000530A6004420FE303F20250857
:1002E000A2000530A60044201430AB0064303F204B
:0802F000AB0B7629BC287B2929
:02400E00A43FCD
:1042000041006C006500780061006E00640072007F
:02421000650047
:00000001FF
